{
  "address": "0x820FFD56FF7803B013f59CF669963060D2053954",
  "abi": [
    {
      "inputs": [
        {
          "internalType": "address",
          "name": "vrfCoordinatorV2",
          "type": "address"
        },
        {
          "internalType": "uint64",
          "name": "subscriptionId",
          "type": "uint64"
        },
        {
          "internalType": "bytes32",
          "name": "gasLane",
          "type": "bytes32"
        },
        {
          "internalType": "uint32",
          "name": "callbackGasLimit",
          "type": "uint32"
        },
        {
          "internalType": "string[3]",
          "name": "dogTokenUris",
          "type": "string[3]"
        },
        {
          "internalType": "uint256",
          "name": "mintFee",
          "type": "uint256"
        }
      ],
      "stateMutability": "nonpayable",
      "type": "constructor"
    },
    {
      "inputs": [
        {
          "internalType": "address",
          "name": "have",
          "type": "address"
        },
        {
          "internalType": "address",
          "name": "want",
          "type": "address"
        }
      ],
      "name": "OnlyCoordinatorCanFulfill",
      "type": "error"
    },
    {
      "inputs": [],
      "name": "RandomIpfsNft__NeedMoreETHSent",
      "type": "error"
    },
    {
      "inputs": [],
      "name": "RandomIpfsNft__RangeOutOfBounds",
      "type": "error"
    },
    {
      "inputs": [],
      "name": "RandomIpfsNft__TransferFailed",
      "type": "error"
    },
    {
      "anonymous": false,
      "inputs": [
        {
          "indexed": true,
          "internalType": "address",
          "name": "owner",
          "type": "address"
        },
        {
          "indexed": true,
          "internalType": "address",
          "name": "approved",
          "type": "address"
        },
        {
          "indexed": true,
          "internalType": "uint256",
          "name": "tokenId",
          "type": "uint256"
        }
      ],
      "name": "Approval",
      "type": "event"
    },
    {
      "anonymous": false,
      "inputs": [
        {
          "indexed": true,
          "internalType": "address",
          "name": "owner",
          "type": "address"
        },
        {
          "indexed": true,
          "internalType": "address",
          "name": "operator",
          "type": "address"
        },
        {
          "indexed": false,
          "internalType": "bool",
          "name": "approved",
          "type": "bool"
        }
      ],
      "name": "ApprovalForAll",
      "type": "event"
    },
    {
      "anonymous": false,
      "inputs": [
        {
          "indexed": false,
          "internalType": "enum RandomIpfsNft.Breed",
          "name": "dogBreed",
          "type": "uint8"
        },
        {
          "indexed": false,
          "internalType": "address",
          "name": "minter",
          "type": "address"
        }
      ],
      "name": "NftMinted",
      "type": "event"
    },
    {
      "anonymous": false,
      "inputs": [
        {
          "indexed": true,
          "internalType": "uint256",
          "name": "requestId",
          "type": "uint256"
        },
        {
          "indexed": false,
          "internalType": "address",
          "name": "requester",
          "type": "address"
        }
      ],
      "name": "NftRequested",
      "type": "event"
    },
    {
      "anonymous": false,
      "inputs": [
        {
          "indexed": true,
          "internalType": "address",
          "name": "previousOwner",
          "type": "address"
        },
        {
          "indexed": true,
          "internalType": "address",
          "name": "newOwner",
          "type": "address"
        }
      ],
      "name": "OwnershipTransferred",
      "type": "event"
    },
    {
      "anonymous": false,
      "inputs": [
        {
          "indexed": true,
          "internalType": "address",
          "name": "from",
          "type": "address"
        },
        {
          "indexed": true,
          "internalType": "address",
          "name": "to",
          "type": "address"
        },
        {
          "indexed": true,
          "internalType": "uint256",
          "name": "tokenId",
          "type": "uint256"
        }
      ],
      "name": "Transfer",
      "type": "event"
    },
    {
      "inputs": [
        {
          "internalType": "address",
          "name": "to",
          "type": "address"
        },
        {
          "internalType": "uint256",
          "name": "tokenId",
          "type": "uint256"
        }
      ],
      "name": "approve",
      "outputs": [],
      "stateMutability": "nonpayable",
      "type": "function"
    },
    {
      "inputs": [
        {
          "internalType": "address",
          "name": "owner",
          "type": "address"
        }
      ],
      "name": "balanceOf",
      "outputs": [
        {
          "internalType": "uint256",
          "name": "",
          "type": "uint256"
        }
      ],
      "stateMutability": "view",
      "type": "function"
    },
    {
      "inputs": [
        {
          "internalType": "uint256",
          "name": "tokenId",
          "type": "uint256"
        }
      ],
      "name": "getApproved",
      "outputs": [
        {
          "internalType": "address",
          "name": "",
          "type": "address"
        }
      ],
      "stateMutability": "view",
      "type": "function"
    },
    {
      "inputs": [
        {
          "internalType": "uint256",
          "name": "moddedRng",
          "type": "uint256"
        }
      ],
      "name": "getBreedFromModdedRng",
      "outputs": [
        {
          "internalType": "enum RandomIpfsNft.Breed",
          "name": "",
          "type": "uint8"
        }
      ],
      "stateMutability": "pure",
      "type": "function"
    },
    {
      "inputs": [],
      "name": "getChanceArray",
      "outputs": [
        {
          "internalType": "uint256[3]",
          "name": "",
          "type": "uint256[3]"
        }
      ],
      "stateMutability": "pure",
      "type": "function"
    },
    {
      "inputs": [
        {
          "internalType": "uint256",
          "name": "index",
          "type": "uint256"
        }
      ],
      "name": "getDogTokenUris",
      "outputs": [
        {
          "internalType": "string",
          "name": "",
          "type": "string"
        }
      ],
      "stateMutability": "view",
      "type": "function"
    },
    {
      "inputs": [],
      "name": "getMintFee",
      "outputs": [
        {
          "internalType": "uint256",
          "name": "",
          "type": "uint256"
        }
      ],
      "stateMutability": "view",
      "type": "function"
    },
    {
      "inputs": [],
      "name": "getTokenCounter",
      "outputs": [
        {
          "internalType": "uint256",
          "name": "",
          "type": "uint256"
        }
      ],
      "stateMutability": "view",
      "type": "function"
    },
    {
      "inputs": [
        {
          "internalType": "address",
          "name": "owner",
          "type": "address"
        },
        {
          "internalType": "address",
          "name": "operator",
          "type": "address"
        }
      ],
      "name": "isApprovedForAll",
      "outputs": [
        {
          "internalType": "bool",
          "name": "",
          "type": "bool"
        }
      ],
      "stateMutability": "view",
      "type": "function"
    },
    {
      "inputs": [],
      "name": "name",
      "outputs": [
        {
          "internalType": "string",
          "name": "",
          "type": "string"
        }
      ],
      "stateMutability": "view",
      "type": "function"
    },
    {
      "inputs": [],
      "name": "owner",
      "outputs": [
        {
          "internalType": "address",
          "name": "",
          "type": "address"
        }
      ],
      "stateMutability": "view",
      "type": "function"
    },
    {
      "inputs": [
        {
          "internalType": "uint256",
          "name": "tokenId",
          "type": "uint256"
        }
      ],
      "name": "ownerOf",
      "outputs": [
        {
          "internalType": "address",
          "name": "",
          "type": "address"
        }
      ],
      "stateMutability": "view",
      "type": "function"
    },
    {
      "inputs": [
        {
          "internalType": "uint256",
          "name": "requestId",
          "type": "uint256"
        },
        {
          "internalType": "uint256[]",
          "name": "randomWords",
          "type": "uint256[]"
        }
      ],
      "name": "rawFulfillRandomWords",
      "outputs": [],
      "stateMutability": "nonpayable",
      "type": "function"
    },
    {
      "inputs": [],
      "name": "renounceOwnership",
      "outputs": [],
      "stateMutability": "nonpayable",
      "type": "function"
    },
    {
      "inputs": [],
      "name": "requestNft",
      "outputs": [
        {
          "internalType": "uint256",
          "name": "requestId",
          "type": "uint256"
        }
      ],
      "stateMutability": "payable",
      "type": "function"
    },
    {
      "inputs": [
        {
          "internalType": "uint256",
          "name": "",
          "type": "uint256"
        }
      ],
      "name": "s_requestIdToSender",
      "outputs": [
        {
          "internalType": "address",
          "name": "",
          "type": "address"
        }
      ],
      "stateMutability": "view",
      "type": "function"
    },
    {
      "inputs": [],
      "name": "s_tokenCounter",
      "outputs": [
        {
          "internalType": "uint256",
          "name": "",
          "type": "uint256"
        }
      ],
      "stateMutability": "view",
      "type": "function"
    },
    {
      "inputs": [
        {
          "internalType": "address",
          "name": "from",
          "type": "address"
        },
        {
          "internalType": "address",
          "name": "to",
          "type": "address"
        },
        {
          "internalType": "uint256",
          "name": "tokenId",
          "type": "uint256"
        }
      ],
      "name": "safeTransferFrom",
      "outputs": [],
      "stateMutability": "nonpayable",
      "type": "function"
    },
    {
      "inputs": [
        {
          "internalType": "address",
          "name": "from",
          "type": "address"
        },
        {
          "internalType": "address",
          "name": "to",
          "type": "address"
        },
        {
          "internalType": "uint256",
          "name": "tokenId",
          "type": "uint256"
        },
        {
          "internalType": "bytes",
          "name": "_data",
          "type": "bytes"
        }
      ],
      "name": "safeTransferFrom",
      "outputs": [],
      "stateMutability": "nonpayable",
      "type": "function"
    },
    {
      "inputs": [
        {
          "internalType": "address",
          "name": "operator",
          "type": "address"
        },
        {
          "internalType": "bool",
          "name": "approved",
          "type": "bool"
        }
      ],
      "name": "setApprovalForAll",
      "outputs": [],
      "stateMutability": "nonpayable",
      "type": "function"
    },
    {
      "inputs": [
        {
          "internalType": "bytes4",
          "name": "interfaceId",
          "type": "bytes4"
        }
      ],
      "name": "supportsInterface",
      "outputs": [
        {
          "internalType": "bool",
          "name": "",
          "type": "bool"
        }
      ],
      "stateMutability": "view",
      "type": "function"
    },
    {
      "inputs": [],
      "name": "symbol",
      "outputs": [
        {
          "internalType": "string",
          "name": "",
          "type": "string"
        }
      ],
      "stateMutability": "view",
      "type": "function"
    },
    {
      "inputs": [
        {
          "internalType": "uint256",
          "name": "tokenId",
          "type": "uint256"
        }
      ],
      "name": "tokenURI",
      "outputs": [
        {
          "internalType": "string",
          "name": "",
          "type": "string"
        }
      ],
      "stateMutability": "view",
      "type": "function"
    },
    {
      "inputs": [
        {
          "internalType": "address",
          "name": "from",
          "type": "address"
        },
        {
          "internalType": "address",
          "name": "to",
          "type": "address"
        },
        {
          "internalType": "uint256",
          "name": "tokenId",
          "type": "uint256"
        }
      ],
      "name": "transferFrom",
      "outputs": [],
      "stateMutability": "nonpayable",
      "type": "function"
    },
    {
      "inputs": [
        {
          "internalType": "address",
          "name": "newOwner",
          "type": "address"
        }
      ],
      "name": "transferOwnership",
      "outputs": [],
      "stateMutability": "nonpayable",
      "type": "function"
    },
    {
      "inputs": [],
      "name": "withdraw",
      "outputs": [],
      "stateMutability": "nonpayable",
      "type": "function"
    }
  ],
  "transactionHash": "0xf289625eab52baac6b24afb76e963c2b0106a1d067b266ba2e24b14bad5c7c7b",
  "args": [
    "0x6168499c0cFfCaCD319c818142124B7A15E857ab",
    "5603",
    "0xd89b2bf150e3b9e13446986e571fb9cab24b13cea0a43ea20a6049a85cc807cc",
    "500000",
    [
      "ipfs://QmNddFsneWThscVTyaTPWoiYAe5X462TSq27Bg2NX6HeWh",
      "ipfs://QmNqYUNjjRDXU4KN1cLA5pUgJ3V4cEVR7VWwDtCh8Awwue",
      "ipfs://Qme7UtrSEuizrnR2wjf2wCmh7YradDvsFicn5ozMrxzc6M"
    ],
    "10000000000000000"
  ],
  "numDeployments": 1,
  "solcInputHash": "1e1d4aa8685a216268b5c450117bb917",
  "bytecode": "0x6101206040523480156200001257600080fd5b50604051620046d3380380620046d3833981810160405281019062000038919062000809565b6040518060400160405280600f81526020017f52616e646f6d2049504653204e465400000000000000000000000000000000008152506040518060400160405280600381526020017f52494e0000000000000000000000000000000000000000000000000000000000815250878073ffffffffffffffffffffffffffffffffffffffff1660808173ffffffffffffffffffffffffffffffffffffffff1660601b81525050508160009080519060200190620000f59291906200029c565b5080600190805190602001906200010e9291906200029c565b5050506200013162000125620001ce60201b60201c565b620001d660201b60201c565b8573ffffffffffffffffffffffffffffffffffffffff1660a08173ffffffffffffffffffffffffffffffffffffffff1660601b815250508467ffffffffffffffff1660c08167ffffffffffffffff1660c01b815250508360e081815250508263ffffffff166101008163ffffffff1660e01b8152505081600a906003620001ba9291906200032d565b5080600b8190555050505050505062000929565b600033905090565b6000600760009054906101000a900473ffffffffffffffffffffffffffffffffffffffff16905081600760006101000a81548173ffffffffffffffffffffffffffffffffffffffff021916908373ffffffffffffffffffffffffffffffffffffffff1602179055508173ffffffffffffffffffffffffffffffffffffffff168173ffffffffffffffffffffffffffffffffffffffff167f8be0079c531659141344cd1fd0a4f28419497f9722a3daafe3b4186f6b6457e060405160405180910390a35050565b828054620002aa90620008f3565b90600052602060002090601f016020900481019282620002ce57600085556200031a565b82601f10620002e957805160ff19168380011785556200031a565b828001600101855582156200031a579182015b8281111562000319578251825591602001919060010190620002fc565b5b50905062000329919062000394565b5090565b82805482825590600052602060002090810192821562000381579160200282015b82811115620003805782518290805190602001906200036f9291906200029c565b50916020019190600101906200034e565b5b509050620003909190620003b3565b5090565b5b80821115620003af57600081600090555060010162000395565b5090565b5b80821115620003d75760008181620003cd9190620003db565b50600101620003b4565b5090565b508054620003e990620008f3565b6000825580601f10620003fd57506200041e565b601f0160209004906000526020600020908101906200041d919062000394565b5b50565b6000604051905090565b600080fd5b600080fd5b600073ffffffffffffffffffffffffffffffffffffffff82169050919050565b6000620004628262000435565b9050919050565b620004748162000455565b81146200048057600080fd5b50565b600081519050620004948162000469565b92915050565b600067ffffffffffffffff82169050919050565b620004b9816200049a565b8114620004c557600080fd5b50565b600081519050620004d981620004ae565b92915050565b6000819050919050565b620004f481620004df565b81146200050057600080fd5b50565b6000815190506200051481620004e9565b92915050565b600063ffffffff82169050919050565b62000535816200051a565b81146200054157600080fd5b50565b60008151905062000555816200052a565b92915050565b600080fd5b6000601f19601f8301169050919050565b7f4e487b7100000000000000000000000000000000000000000000000000000000600052604160045260246000fd5b620005ab8262000560565b810181811067ffffffffffffffff82111715620005cd57620005cc62000571565b5b80604052505050565b6000620005e262000421565b9050620005f08282620005a0565b919050565b600067ffffffffffffffff82111562000613576200061262000571565b5b602082029050919050565b600080fd5b600080fd5b600067ffffffffffffffff82111562000646576200064562000571565b5b620006518262000560565b9050602081019050919050565b60005b838110156200067e57808201518184015260208101905062000661565b838111156200068e576000848401525b50505050565b6000620006ab620006a58462000628565b620005d6565b905082815260208101848484011115620006ca57620006c962000623565b5b620006d78482856200065e565b509392505050565b600082601f830112620006f757620006f66200055b565b5b81516200070984826020860162000694565b91505092915050565b6000620007296200072384620005f5565b620005d6565b905080602084028301858111156200074657620007456200061e565b5b835b818110156200079457805167ffffffffffffffff8111156200076f576200076e6200055b565b5b8086016200077e8982620006df565b8552602085019450505060208101905062000748565b5050509392505050565b600082601f830112620007b657620007b56200055b565b5b6003620007c584828562000712565b91505092915050565b6000819050919050565b620007e381620007ce565b8114620007ef57600080fd5b50565b6000815190506200080381620007d8565b92915050565b60008060008060008060c087890312156200082957620008286200042b565b5b60006200083989828a0162000483565b96505060206200084c89828a01620004c8565b95505060406200085f89828a0162000503565b94505060606200087289828a0162000544565b935050608087015167ffffffffffffffff81111562000896576200089562000430565b5b620008a489828a016200079e565b92505060a0620008b789828a01620007f2565b9150509295509295509295565b7f4e487b7100000000000000000000000000000000000000000000000000000000600052602260045260246000fd5b600060028204905060018216806200090c57607f821691505b60208210811415620009235762000922620008c4565b5b50919050565b60805160601c60a05160601c60c05160c01c60e0516101005160e01c613d5262000981600039600061114a0152600061110601526000611127015260006110ca01526000818161095c01526109b00152613d526000f3fe6080604052600436106101815760003560e01c806370a08231116100d1578063a36f573b1161008a578063b88d4fde11610064578063b88d4fde14610577578063c87b56dd146105a0578063e985e9c5146105dd578063f2fde38b1461061a57610181565b8063a36f573b146104df578063a51cccf31461051c578063aa1524911461055957610181565b806370a08231146103e1578063715018a61461041e5780637a5caab3146104355780638da5cb5b1461046057806395d89b411461048b578063a22cb465146104b657610181565b806323b872dd1161013e57806342842e0e1161011857806342842e0e146103255780635dacf5f41461034e5780636352211e146103795780636e02007d146103b657610181565b806323b872dd146102a85780633af25975146102d15780633ccfd60b1461030e57610181565b806301ffc9a71461018657806306fdde03146101c3578063081812fc146101ee578063095ea7b31461022b5780630b21a83b146102545780631fe543e31461027f575b600080fd5b34801561019257600080fd5b506101ad60048036038101906101a89190612692565b610643565b6040516101ba91906126da565b60405180910390f35b3480156101cf57600080fd5b506101d8610725565b6040516101e5919061278e565b60405180910390f35b3480156101fa57600080fd5b50610215600480360381019061021091906127e6565b6107b7565b6040516102229190612854565b60405180910390f35b34801561023757600080fd5b50610252600480360381019061024d919061289b565b61083c565b005b34801561026057600080fd5b50610269610954565b60405161027691906128ea565b60405180910390f35b34801561028b57600080fd5b506102a660048036038101906102a19190612a4d565b61095a565b005b3480156102b457600080fd5b506102cf60048036038101906102ca9190612aa9565b610a1a565b005b3480156102dd57600080fd5b506102f860048036038101906102f391906127e6565b610a7a565b604051610305919061278e565b60405180910390f35b34801561031a57600080fd5b50610323610b2a565b005b34801561033157600080fd5b5061034c60048036038101906103479190612aa9565b610c52565b005b34801561035a57600080fd5b50610363610c72565b6040516103709190612ba7565b60405180910390f35b34801561038557600080fd5b506103a0600480360381019061039b91906127e6565b610c9d565b6040516103ad9190612854565b60405180910390f35b3480156103c257600080fd5b506103cb610d4f565b6040516103d891906128ea565b60405180910390f35b3480156103ed57600080fd5b5061040860048036038101906104039190612bc2565b610d59565b60405161041591906128ea565b60405180910390f35b34801561042a57600080fd5b50610433610e11565b005b34801561044157600080fd5b5061044a610e99565b60405161045791906128ea565b60405180910390f35b34801561046c57600080fd5b50610475610ea3565b6040516104829190612854565b60405180910390f35b34801561049757600080fd5b506104a0610ecd565b6040516104ad919061278e565b60405180910390f35b3480156104c257600080fd5b506104dd60048036038101906104d89190612c1b565b610f5f565b005b3480156104eb57600080fd5b50610506600480360381019061050191906127e6565b610f75565b6040516105139190612854565b60405180910390f35b34801561052857600080fd5b50610543600480360381019061053e91906127e6565b610fa8565b6040516105509190612cd2565b60405180910390f35b61056161108a565b60405161056e91906128ea565b60405180910390f35b34801561058357600080fd5b5061059e60048036038101906105999190612da2565b61126c565b005b3480156105ac57600080fd5b506105c760048036038101906105c291906127e6565b6112ce565b6040516105d4919061278e565b60405180910390f35b3480156105e957600080fd5b5061060460048036038101906105ff9190612e25565b611420565b60405161061191906126da565b60405180910390f35b34801561062657600080fd5b50610641600480360381019061063c9190612bc2565b6114b4565b005b60007f80ac58cd000000000000000000000000000000000000000000000000000000007bffffffffffffffffffffffffffffffffffffffffffffffffffffffff1916827bffffffffffffffffffffffffffffffffffffffffffffffffffffffff1916148061070e57507f5b5e139f000000000000000000000000000000000000000000000000000000007bffffffffffffffffffffffffffffffffffffffffffffffffffffffff1916827bffffffffffffffffffffffffffffffffffffffffffffffffffffffff1916145b8061071e575061071d826115ac565b5b9050919050565b60606000805461073490612e94565b80601f016020809104026020016040519081016040528092919081815260200182805461076090612e94565b80156107ad5780601f10610782576101008083540402835291602001916107ad565b820191906000526020600020905b81548152906001019060200180831161079057829003601f168201915b5050505050905090565b60006107c282611616565b610801576040517f08c379a00000000000000000000000000000000000000000000000000000000081526004016107f890612f38565b60405180910390fd5b6004600083815260200190815260200160002060009054906101000a900473ffffffffffffffffffffffffffffffffffffffff169050919050565b600061084782610c9d565b90508073ffffffffffffffffffffffffffffffffffffffff168373ffffffffffffffffffffffffffffffffffffffff1614156108b8576040517f08c379a00000000000000000000000000000000000000000000000000000000081526004016108af90612fca565b60405180910390fd5b8073ffffffffffffffffffffffffffffffffffffffff166108d7611682565b73ffffffffffffffffffffffffffffffffffffffff161480610906575061090581610900611682565b611420565b5b610945576040517f08c379a000000000000000000000000000000000000000000000000000000000815260040161093c9061305c565b60405180910390fd5b61094f838361168a565b505050565b60095481565b7f000000000000000000000000000000000000000000000000000000000000000073ffffffffffffffffffffffffffffffffffffffff163373ffffffffffffffffffffffffffffffffffffffff1614610a0c57337f00000000000000000000000000000000000000000000000000000000000000006040517f1cf993f4000000000000000000000000000000000000000000000000000000008152600401610a0392919061307c565b60405180910390fd5b610a168282611743565b5050565b610a2b610a25611682565b826118e3565b610a6a576040517f08c379a0000000000000000000000000000000000000000000000000000000008152600401610a6190613117565b60405180910390fd5b610a758383836119c1565b505050565b6060600a8281548110610a9057610a8f613137565b5b906000526020600020018054610aa590612e94565b80601f0160208091040260200160405190810160405280929190818152602001828054610ad190612e94565b8015610b1e5780601f10610af357610100808354040283529160200191610b1e565b820191906000526020600020905b815481529060010190602001808311610b0157829003601f168201915b50505050509050919050565b610b32611682565b73ffffffffffffffffffffffffffffffffffffffff16610b50610ea3565b73ffffffffffffffffffffffffffffffffffffffff1614610ba6576040517f08c379a0000000000000000000000000000000000000000000000000000000008152600401610b9d906131b2565b60405180910390fd5b600047905060003373ffffffffffffffffffffffffffffffffffffffff1682604051610bd190613203565b60006040518083038185875af1925050503d8060008114610c0e576040519150601f19603f3d011682016040523d82523d6000602084013e610c13565b606091505b5050905080610c4e576040517fca7e25b700000000000000000000000000000000000000000000000000000000815260040160405180910390fd5b5050565b610c6d8383836040518060200160405280600081525061126c565b505050565b610c7a612561565b6040518060600160405280600a8152602001601e81526020016064815250905090565b6000806002600084815260200190815260200160002060009054906101000a900473ffffffffffffffffffffffffffffffffffffffff169050600073ffffffffffffffffffffffffffffffffffffffff168173ffffffffffffffffffffffffffffffffffffffff161415610d46576040517f08c379a0000000000000000000000000000000000000000000000000000000008152600401610d3d9061328a565b60405180910390fd5b80915050919050565b6000600954905090565b60008073ffffffffffffffffffffffffffffffffffffffff168273ffffffffffffffffffffffffffffffffffffffff161415610dca576040517f08c379a0000000000000000000000000000000000000000000000000000000008152600401610dc19061331c565b60405180910390fd5b600360008373ffffffffffffffffffffffffffffffffffffffff1673ffffffffffffffffffffffffffffffffffffffff168152602001908152602001600020549050919050565b610e19611682565b73ffffffffffffffffffffffffffffffffffffffff16610e37610ea3565b73ffffffffffffffffffffffffffffffffffffffff1614610e8d576040517f08c379a0000000000000000000000000000000000000000000000000000000008152600401610e84906131b2565b60405180910390fd5b610e976000611c28565b565b6000600b54905090565b6000600760009054906101000a900473ffffffffffffffffffffffffffffffffffffffff16905090565b606060018054610edc90612e94565b80601f0160208091040260200160405190810160405280929190818152602001828054610f0890612e94565b8015610f555780601f10610f2a57610100808354040283529160200191610f55565b820191906000526020600020905b815481529060010190602001808311610f3857829003601f168201915b5050505050905090565b610f71610f6a611682565b8383611cee565b5050565b60086020528060005260406000206000915054906101000a900473ffffffffffffffffffffffffffffffffffffffff1681565b600080600090506000610fb9610c72565b905060005b600381101561105257828510158015610ff85750818160038110610fe557610fe4613137565b5b602002015183610ff5919061336b565b85105b1561101a578060028111156110105761100f612c5b565b5b9350505050611085565b81816003811061102d5761102c613137565b5b60200201518361103d919061336b565b9250808061104a906133c1565b915050610fbe565b506040517f12806c9d00000000000000000000000000000000000000000000000000000000815260040160405180910390fd5b919050565b6000600b543410156110c8576040517fb90f491000000000000000000000000000000000000000000000000000000000815260040160405180910390fd5b7f000000000000000000000000000000000000000000000000000000000000000073ffffffffffffffffffffffffffffffffffffffff16635d3b1d307f00000000000000000000000000000000000000000000000000000000000000007f000000000000000000000000000000000000000000000000000000000000000060037f000000000000000000000000000000000000000000000000000000000000000060016040518663ffffffff1660e01b815260040161118b959493929190613482565b602060405180830381600087803b1580156111a557600080fd5b505af11580156111b9573d6000803e3d6000fd5b505050506040513d601f19601f820116820180604052508101906111dd91906134ea565b9050336008600083815260200190815260200160002060006101000a81548173ffffffffffffffffffffffffffffffffffffffff021916908373ffffffffffffffffffffffffffffffffffffffff160217905550807ff873236e6cc0ecc5be1a9a35c95ee5b8d1ac4cc7bfef0cc5060391d6cc98e26b336040516112619190612854565b60405180910390a290565b61127d611277611682565b836118e3565b6112bc576040517f08c379a00000000000000000000000000000000000000000000000000000000081526004016112b390613117565b60405180910390fd5b6112c884848484611e5b565b50505050565b60606112d982611616565b611318576040517f08c379a000000000000000000000000000000000000000000000000000000000815260040161130f90613589565b60405180910390fd5b600060066000848152602001908152602001600020805461133890612e94565b80601f016020809104026020016040519081016040528092919081815260200182805461136490612e94565b80156113b15780601f10611386576101008083540402835291602001916113b1565b820191906000526020600020905b81548152906001019060200180831161139457829003601f168201915b5050505050905060006113c2611eb7565b90506000815114156113d857819250505061141b565b60008251111561140d5780826040516020016113f59291906135e5565b6040516020818303038152906040529250505061141b565b61141684611ece565b925050505b919050565b6000600560008473ffffffffffffffffffffffffffffffffffffffff1673ffffffffffffffffffffffffffffffffffffffff16815260200190815260200160002060008373ffffffffffffffffffffffffffffffffffffffff1673ffffffffffffffffffffffffffffffffffffffff16815260200190815260200160002060009054906101000a900460ff16905092915050565b6114bc611682565b73ffffffffffffffffffffffffffffffffffffffff166114da610ea3565b73ffffffffffffffffffffffffffffffffffffffff1614611530576040517f08c379a0000000000000000000000000000000000000000000000000000000008152600401611527906131b2565b60405180910390fd5b600073ffffffffffffffffffffffffffffffffffffffff168173ffffffffffffffffffffffffffffffffffffffff1614156115a0576040517f08c379a00000000000000000000000000000000000000000000000000000000081526004016115979061367b565b60405180910390fd5b6115a981611c28565b50565b60007f01ffc9a7000000000000000000000000000000000000000000000000000000007bffffffffffffffffffffffffffffffffffffffffffffffffffffffff1916827bffffffffffffffffffffffffffffffffffffffffffffffffffffffff1916149050919050565b60008073ffffffffffffffffffffffffffffffffffffffff166002600084815260200190815260200160002060009054906101000a900473ffffffffffffffffffffffffffffffffffffffff1673ffffffffffffffffffffffffffffffffffffffff1614159050919050565b600033905090565b816004600083815260200190815260200160002060006101000a81548173ffffffffffffffffffffffffffffffffffffffff021916908373ffffffffffffffffffffffffffffffffffffffff160217905550808273ffffffffffffffffffffffffffffffffffffffff166116fd83610c9d565b73ffffffffffffffffffffffffffffffffffffffff167f8c5be1e5ebec7d5bd14f71427d1e84f3dd0314c0f7b2291e5b200ac8c7c3b92560405160405180910390a45050565b60006008600084815260200190815260200160002060009054906101000a900473ffffffffffffffffffffffffffffffffffffffff16905060006009549050600060648460008151811061179a57611799613137565b5b60200260200101516117ac91906136ca565b905060006117b982610fa8565b9050600954600960008282546117cf919061336b565b925050819055506117e08484611f75565b6118a283600a8360028111156117f9576117f8612c5b565b5b8154811061180a57611809613137565b5b90600052602060002001805461181f90612e94565b80601f016020809104026020016040519081016040528092919081815260200182805461184b90612e94565b80156118985780601f1061186d57610100808354040283529160200191611898565b820191906000526020600020905b81548152906001019060200180831161187b57829003601f168201915b5050505050611f93565b7f8a269f26b688e110e9cbd887d163dab35cae678fa353a0292de532c0cac1ecdc81856040516118d39291906136fb565b60405180910390a1505050505050565b60006118ee82611616565b61192d576040517f08c379a000000000000000000000000000000000000000000000000000000000815260040161192490613796565b60405180910390fd5b600061193883610c9d565b90508073ffffffffffffffffffffffffffffffffffffffff168473ffffffffffffffffffffffffffffffffffffffff16148061197a57506119798185611420565b5b806119b857508373ffffffffffffffffffffffffffffffffffffffff166119a0846107b7565b73ffffffffffffffffffffffffffffffffffffffff16145b91505092915050565b8273ffffffffffffffffffffffffffffffffffffffff166119e182610c9d565b73ffffffffffffffffffffffffffffffffffffffff1614611a37576040517f08c379a0000000000000000000000000000000000000000000000000000000008152600401611a2e90613828565b60405180910390fd5b600073ffffffffffffffffffffffffffffffffffffffff168273ffffffffffffffffffffffffffffffffffffffff161415611aa7576040517f08c379a0000000000000000000000000000000000000000000000000000000008152600401611a9e906138ba565b60405180910390fd5b611ab2838383612007565b611abd60008261168a565b6001600360008573ffffffffffffffffffffffffffffffffffffffff1673ffffffffffffffffffffffffffffffffffffffff1681526020019081526020016000206000828254611b0d91906138da565b925050819055506001600360008473ffffffffffffffffffffffffffffffffffffffff1673ffffffffffffffffffffffffffffffffffffffff1681526020019081526020016000206000828254611b64919061336b565b92505081905550816002600083815260200190815260200160002060006101000a81548173ffffffffffffffffffffffffffffffffffffffff021916908373ffffffffffffffffffffffffffffffffffffffff160217905550808273ffffffffffffffffffffffffffffffffffffffff168473ffffffffffffffffffffffffffffffffffffffff167fddf252ad1be2c89b69c2b068fc378daa952ba7f163c4a11628f55a4df523b3ef60405160405180910390a4611c2383838361200c565b505050565b6000600760009054906101000a900473ffffffffffffffffffffffffffffffffffffffff16905081600760006101000a81548173ffffffffffffffffffffffffffffffffffffffff021916908373ffffffffffffffffffffffffffffffffffffffff1602179055508173ffffffffffffffffffffffffffffffffffffffff168173ffffffffffffffffffffffffffffffffffffffff167f8be0079c531659141344cd1fd0a4f28419497f9722a3daafe3b4186f6b6457e060405160405180910390a35050565b8173ffffffffffffffffffffffffffffffffffffffff168373ffffffffffffffffffffffffffffffffffffffff161415611d5d576040517f08c379a0000000000000000000000000000000000000000000000000000000008152600401611d549061395a565b60405180910390fd5b80600560008573ffffffffffffffffffffffffffffffffffffffff1673ffffffffffffffffffffffffffffffffffffffff16815260200190815260200160002060008473ffffffffffffffffffffffffffffffffffffffff1673ffffffffffffffffffffffffffffffffffffffff16815260200190815260200160002060006101000a81548160ff0219169083151502179055508173ffffffffffffffffffffffffffffffffffffffff168373ffffffffffffffffffffffffffffffffffffffff167f17307eab39ab6107e8899845ad3d59bd9653f200f220920489ca2b5937696c3183604051611e4e91906126da565b60405180910390a3505050565b611e668484846119c1565b611e7284848484612011565b611eb1576040517f08c379a0000000000000000000000000000000000000000000000000000000008152600401611ea8906139ec565b60405180910390fd5b50505050565b606060405180602001604052806000815250905090565b6060611ed982611616565b611f18576040517f08c379a0000000000000000000000000000000000000000000000000000000008152600401611f0f90613a7e565b60405180910390fd5b6000611f22611eb7565b90506000815111611f425760405180602001604052806000815250611f6d565b80611f4c846121a8565b604051602001611f5d9291906135e5565b6040516020818303038152906040525b915050919050565b611f8f828260405180602001604052806000815250612309565b5050565b611f9c82611616565b611fdb576040517f08c379a0000000000000000000000000000000000000000000000000000000008152600401611fd290613b10565b60405180910390fd5b80600660008481526020019081526020016000209080519060200190612002929190612583565b505050565b505050565b505050565b60006120328473ffffffffffffffffffffffffffffffffffffffff16612364565b1561219b578373ffffffffffffffffffffffffffffffffffffffff1663150b7a0261205b611682565b8786866040518563ffffffff1660e01b815260040161207d9493929190613b85565b602060405180830381600087803b15801561209757600080fd5b505af19250505080156120c857506040513d601f19601f820116820180604052508101906120c59190613be6565b60015b61214b573d80600081146120f8576040519150601f19603f3d011682016040523d82523d6000602084013e6120fd565b606091505b50600081511415612143576040517f08c379a000000000000000000000000000000000000000000000000000000000815260040161213a906139ec565b60405180910390fd5b805181602001fd5b63150b7a0260e01b7bffffffffffffffffffffffffffffffffffffffffffffffffffffffff1916817bffffffffffffffffffffffffffffffffffffffffffffffffffffffff1916149150506121a0565b600190505b949350505050565b606060008214156121f0576040518060400160405280600181526020017f30000000000000000000000000000000000000000000000000000000000000008152509050612304565b600082905060005b6000821461222257808061220b906133c1565b915050600a8261221b9190613c13565b91506121f8565b60008167ffffffffffffffff81111561223e5761223d61290a565b5b6040519080825280601f01601f1916602001820160405280156122705781602001600182028036833780820191505090505b5090505b600085146122fd5760018261228991906138da565b9150600a8561229891906136ca565b60306122a4919061336b565b60f81b8183815181106122ba576122b9613137565b5b60200101907effffffffffffffffffffffffffffffffffffffffffffffffffffffffffffff1916908160001a905350600a856122f69190613c13565b9450612274565b8093505050505b919050565b6123138383612387565b6123206000848484612011565b61235f576040517f08c379a0000000000000000000000000000000000000000000000000000000008152600401612356906139ec565b60405180910390fd5b505050565b6000808273ffffffffffffffffffffffffffffffffffffffff163b119050919050565b600073ffffffffffffffffffffffffffffffffffffffff168273ffffffffffffffffffffffffffffffffffffffff1614156123f7576040517f08c379a00000000000000000000000000000000000000000000000000000000081526004016123ee90613c90565b60405180910390fd5b61240081611616565b15612440576040517f08c379a000000000000000000000000000000000000000000000000000000000815260040161243790613cfc565b60405180910390fd5b61244c60008383612007565b6001600360008473ffffffffffffffffffffffffffffffffffffffff1673ffffffffffffffffffffffffffffffffffffffff168152602001908152602001600020600082825461249c919061336b565b92505081905550816002600083815260200190815260200160002060006101000a81548173ffffffffffffffffffffffffffffffffffffffff021916908373ffffffffffffffffffffffffffffffffffffffff160217905550808273ffffffffffffffffffffffffffffffffffffffff16600073ffffffffffffffffffffffffffffffffffffffff167fddf252ad1be2c89b69c2b068fc378daa952ba7f163c4a11628f55a4df523b3ef60405160405180910390a461255d6000838361200c565b5050565b6040518060600160405280600390602082028036833780820191505090505090565b82805461258f90612e94565b90600052602060002090601f0160209004810192826125b157600085556125f8565b82601f106125ca57805160ff19168380011785556125f8565b828001600101855582156125f8579182015b828111156125f75782518255916020019190600101906125dc565b5b5090506126059190612609565b5090565b5b8082111561262257600081600090555060010161260a565b5090565b6000604051905090565b600080fd5b600080fd5b60007fffffffff0000000000000000000000000000000000000000000000000000000082169050919050565b61266f8161263a565b811461267a57600080fd5b50565b60008135905061268c81612666565b92915050565b6000602082840312156126a8576126a7612630565b5b60006126b68482850161267d565b91505092915050565b60008115159050919050565b6126d4816126bf565b82525050565b60006020820190506126ef60008301846126cb565b92915050565b600081519050919050565b600082825260208201905092915050565b60005b8381101561272f578082015181840152602081019050612714565b8381111561273e576000848401525b50505050565b6000601f19601f8301169050919050565b6000612760826126f5565b61276a8185612700565b935061277a818560208601612711565b61278381612744565b840191505092915050565b600060208201905081810360008301526127a88184612755565b905092915050565b6000819050919050565b6127c3816127b0565b81146127ce57600080fd5b50565b6000813590506127e0816127ba565b92915050565b6000602082840312156127fc576127fb612630565b5b600061280a848285016127d1565b91505092915050565b600073ffffffffffffffffffffffffffffffffffffffff82169050919050565b600061283e82612813565b9050919050565b61284e81612833565b82525050565b60006020820190506128696000830184612845565b92915050565b61287881612833565b811461288357600080fd5b50565b6000813590506128958161286f565b92915050565b600080604083850312156128b2576128b1612630565b5b60006128c085828601612886565b92505060206128d1858286016127d1565b9150509250929050565b6128e4816127b0565b82525050565b60006020820190506128ff60008301846128db565b92915050565b600080fd5b7f4e487b7100000000000000000000000000000000000000000000000000000000600052604160045260246000fd5b61294282612744565b810181811067ffffffffffffffff821117156129615761296061290a565b5b80604052505050565b6000612974612626565b90506129808282612939565b919050565b600067ffffffffffffffff8211156129a05761299f61290a565b5b602082029050602081019050919050565b600080fd5b60006129c96129c484612985565b61296a565b905080838252602082019050602084028301858111156129ec576129eb6129b1565b5b835b81811015612a155780612a0188826127d1565b8452602084019350506020810190506129ee565b5050509392505050565b600082601f830112612a3457612a33612905565b5b8135612a448482602086016129b6565b91505092915050565b60008060408385031215612a6457612a63612630565b5b6000612a72858286016127d1565b925050602083013567ffffffffffffffff811115612a9357612a92612635565b5b612a9f85828601612a1f565b9150509250929050565b600080600060608486031215612ac257612ac1612630565b5b6000612ad086828701612886565b9350506020612ae186828701612886565b9250506040612af2868287016127d1565b9150509250925092565b600060039050919050565b600081905092915050565b6000819050919050565b612b25816127b0565b82525050565b6000612b378383612b1c565b60208301905092915050565b6000602082019050919050565b612b5981612afc565b612b638184612b07565b9250612b6e82612b12565b8060005b83811015612b9f578151612b868782612b2b565b9650612b9183612b43565b925050600181019050612b72565b505050505050565b6000606082019050612bbc6000830184612b50565b92915050565b600060208284031215612bd857612bd7612630565b5b6000612be684828501612886565b91505092915050565b612bf8816126bf565b8114612c0357600080fd5b50565b600081359050612c1581612bef565b92915050565b60008060408385031215612c3257612c31612630565b5b6000612c4085828601612886565b9250506020612c5185828601612c06565b9150509250929050565b7f4e487b7100000000000000000000000000000000000000000000000000000000600052602160045260246000fd5b60038110612c9b57612c9a612c5b565b5b50565b6000819050612cac82612c8a565b919050565b6000612cbc82612c9e565b9050919050565b612ccc81612cb1565b82525050565b6000602082019050612ce76000830184612cc3565b92915050565b600080fd5b600067ffffffffffffffff821115612d0d57612d0c61290a565b5b612d1682612744565b9050602081019050919050565b82818337600083830152505050565b6000612d45612d4084612cf2565b61296a565b905082815260208101848484011115612d6157612d60612ced565b5b612d6c848285612d23565b509392505050565b600082601f830112612d8957612d88612905565b5b8135612d99848260208601612d32565b91505092915050565b60008060008060808587031215612dbc57612dbb612630565b5b6000612dca87828801612886565b9450506020612ddb87828801612886565b9350506040612dec878288016127d1565b925050606085013567ffffffffffffffff811115612e0d57612e0c612635565b5b612e1987828801612d74565b91505092959194509250565b60008060408385031215612e3c57612e3b612630565b5b6000612e4a85828601612886565b9250506020612e5b85828601612886565b9150509250929050565b7f4e487b7100000000000000000000000000000000000000000000000000000000600052602260045260246000fd5b60006002820490506001821680612eac57607f821691505b60208210811415612ec057612ebf612e65565b5b50919050565b7f4552433732313a20617070726f76656420717565727920666f72206e6f6e657860008201527f697374656e7420746f6b656e0000000000000000000000000000000000000000602082015250565b6000612f22602c83612700565b9150612f2d82612ec6565b604082019050919050565b60006020820190508181036000830152612f5181612f15565b9050919050565b7f4552433732313a20617070726f76616c20746f2063757272656e74206f776e6560008201527f7200000000000000000000000000000000000000000000000000000000000000602082015250565b6000612fb4602183612700565b9150612fbf82612f58565b604082019050919050565b60006020820190508181036000830152612fe381612fa7565b9050919050565b7f4552433732313a20617070726f76652063616c6c6572206973206e6f74206f7760008201527f6e6572206e6f7220617070726f76656420666f7220616c6c0000000000000000602082015250565b6000613046603883612700565b915061305182612fea565b604082019050919050565b6000602082019050818103600083015261307581613039565b9050919050565b60006040820190506130916000830185612845565b61309e6020830184612845565b9392505050565b7f4552433732313a207472616e736665722063616c6c6572206973206e6f74206f60008201527f776e6572206e6f7220617070726f766564000000000000000000000000000000602082015250565b6000613101603183612700565b915061310c826130a5565b604082019050919050565b60006020820190508181036000830152613130816130f4565b9050919050565b7f4e487b7100000000000000000000000000000000000000000000000000000000600052603260045260246000fd5b7f4f776e61626c653a2063616c6c6572206973206e6f7420746865206f776e6572600082015250565b600061319c602083612700565b91506131a782613166565b602082019050919050565b600060208201905081810360008301526131cb8161318f565b9050919050565b600081905092915050565b50565b60006131ed6000836131d2565b91506131f8826131dd565b600082019050919050565b600061320e826131e0565b9150819050919050565b7f4552433732313a206f776e657220717565727920666f72206e6f6e657869737460008201527f656e7420746f6b656e0000000000000000000000000000000000000000000000602082015250565b6000613274602983612700565b915061327f82613218565b604082019050919050565b600060208201905081810360008301526132a381613267565b9050919050565b7f4552433732313a2062616c616e636520717565727920666f7220746865207a6560008201527f726f206164647265737300000000000000000000000000000000000000000000602082015250565b6000613306602a83612700565b9150613311826132aa565b604082019050919050565b60006020820190508181036000830152613335816132f9565b9050919050565b7f4e487b7100000000000000000000000000000000000000000000000000000000600052601160045260246000fd5b6000613376826127b0565b9150613381836127b0565b9250827fffffffffffffffffffffffffffffffffffffffffffffffffffffffffffffffff038211156133b6576133b561333c565b5b828201905092915050565b60006133cc826127b0565b91507fffffffffffffffffffffffffffffffffffffffffffffffffffffffffffffffff8214156133ff576133fe61333c565b5b600182019050919050565b6000819050919050565b61341d8161340a565b82525050565b600067ffffffffffffffff82169050919050565b61344081613423565b82525050565b600061ffff82169050919050565b61345d81613446565b82525050565b600063ffffffff82169050919050565b61347c81613463565b82525050565b600060a0820190506134976000830188613414565b6134a46020830187613437565b6134b16040830186613454565b6134be6060830185613473565b6134cb6080830184613473565b9695505050505050565b6000815190506134e4816127ba565b92915050565b600060208284031215613500576134ff612630565b5b600061350e848285016134d5565b91505092915050565b7f45524337323155524953746f726167653a2055524920717565727920666f722060008201527f6e6f6e6578697374656e7420746f6b656e000000000000000000000000000000602082015250565b6000613573603183612700565b915061357e82613517565b604082019050919050565b600060208201905081810360008301526135a281613566565b9050919050565b600081905092915050565b60006135bf826126f5565b6135c981856135a9565b93506135d9818560208601612711565b80840191505092915050565b60006135f182856135b4565b91506135fd82846135b4565b91508190509392505050565b7f4f776e61626c653a206e6577206f776e657220697320746865207a65726f206160008201527f6464726573730000000000000000000000000000000000000000000000000000602082015250565b6000613665602683612700565b915061367082613609565b604082019050919050565b6000602082019050818103600083015261369481613658565b9050919050565b7f4e487b7100000000000000000000000000000000000000000000000000000000600052601260045260246000fd5b60006136d5826127b0565b91506136e0836127b0565b9250826136f0576136ef61369b565b5b828206905092915050565b60006040820190506137106000830185612cc3565b61371d6020830184612845565b9392505050565b7f4552433732313a206f70657261746f7220717565727920666f72206e6f6e657860008201527f697374656e7420746f6b656e0000000000000000000000000000000000000000602082015250565b6000613780602c83612700565b915061378b82613724565b604082019050919050565b600060208201905081810360008301526137af81613773565b9050919050565b7f4552433732313a207472616e736665722066726f6d20696e636f72726563742060008201527f6f776e6572000000000000000000000000000000000000000000000000000000602082015250565b6000613812602583612700565b915061381d826137b6565b604082019050919050565b6000602082019050818103600083015261384181613805565b9050919050565b7f4552433732313a207472616e7366657220746f20746865207a65726f2061646460008201527f7265737300000000000000000000000000000000000000000000000000000000602082015250565b60006138a4602483612700565b91506138af82613848565b604082019050919050565b600060208201905081810360008301526138d381613897565b9050919050565b60006138e5826127b0565b91506138f0836127b0565b9250828210156139035761390261333c565b5b828203905092915050565b7f4552433732313a20617070726f766520746f2063616c6c657200000000000000600082015250565b6000613944601983612700565b915061394f8261390e565b602082019050919050565b6000602082019050818103600083015261397381613937565b9050919050565b7f4552433732313a207472616e7366657220746f206e6f6e20455243373231526560008201527f63656976657220696d706c656d656e7465720000000000000000000000000000602082015250565b60006139d6603283612700565b91506139e18261397a565b604082019050919050565b60006020820190508181036000830152613a05816139c9565b9050919050565b7f4552433732314d657461646174613a2055524920717565727920666f72206e6f60008201527f6e6578697374656e7420746f6b656e0000000000000000000000000000000000602082015250565b6000613a68602f83612700565b9150613a7382613a0c565b604082019050919050565b60006020820190508181036000830152613a9781613a5b565b9050919050565b7f45524337323155524953746f726167653a2055524920736574206f66206e6f6e60008201527f6578697374656e7420746f6b656e000000000000000000000000000000000000602082015250565b6000613afa602e83612700565b9150613b0582613a9e565b604082019050919050565b60006020820190508181036000830152613b2981613aed565b9050919050565b600081519050919050565b600082825260208201905092915050565b6000613b5782613b30565b613b618185613b3b565b9350613b71818560208601612711565b613b7a81612744565b840191505092915050565b6000608082019050613b9a6000830187612845565b613ba76020830186612845565b613bb460408301856128db565b8181036060830152613bc68184613b4c565b905095945050505050565b600081519050613be081612666565b92915050565b600060208284031215613bfc57613bfb612630565b5b6000613c0a84828501613bd1565b91505092915050565b6000613c1e826127b0565b9150613c29836127b0565b925082613c3957613c3861369b565b5b828204905092915050565b7f4552433732313a206d696e7420746f20746865207a65726f2061646472657373600082015250565b6000613c7a602083612700565b9150613c8582613c44565b602082019050919050565b60006020820190508181036000830152613ca981613c6d565b9050919050565b7f4552433732313a20746f6b656e20616c7265616479206d696e74656400000000600082015250565b6000613ce6601c83612700565b9150613cf182613cb0565b602082019050919050565b60006020820190508181036000830152613d1581613cd9565b905091905056fea2646970667358221220c3a58fd5dac717296b9ba29996329426917580c0fcf09e34a7a853fb77ba5ee864736f6c63430008080033",
  "devdoc": {
    "kind": "dev",
    "methods": {
      "approve(address,uint256)": {
        "details": "See {IERC721-approve}."
      },
      "balanceOf(address)": {
        "details": "See {IERC721-balanceOf}."
      },
      "getApproved(uint256)": {
        "details": "See {IERC721-getApproved}."
      },
      "isApprovedForAll(address,address)": {
        "details": "See {IERC721-isApprovedForAll}."
      },
      "name()": {
        "details": "See {IERC721Metadata-name}."
      },
      "owner()": {
        "details": "Returns the address of the current owner."
      },
      "ownerOf(uint256)": {
        "details": "See {IERC721-ownerOf}."
      },
      "renounceOwnership()": {
        "details": "Leaves the contract without owner. It will not be possible to call `onlyOwner` functions anymore. Can only be called by the current owner. NOTE: Renouncing ownership will leave the contract without an owner, thereby removing any functionality that is only available to the owner."
      },
      "safeTransferFrom(address,address,uint256)": {
        "details": "See {IERC721-safeTransferFrom}."
      },
      "safeTransferFrom(address,address,uint256,bytes)": {
        "details": "See {IERC721-safeTransferFrom}."
      },
      "setApprovalForAll(address,bool)": {
        "details": "See {IERC721-setApprovalForAll}."
      },
      "supportsInterface(bytes4)": {
        "details": "See {IERC165-supportsInterface}."
      },
      "symbol()": {
        "details": "See {IERC721Metadata-symbol}."
      },
      "tokenURI(uint256)": {
        "details": "See {IERC721Metadata-tokenURI}."
      },
      "transferFrom(address,address,uint256)": {
        "details": "See {IERC721-transferFrom}."
      },
      "transferOwnership(address)": {
        "details": "Transfers ownership of the contract to a new account (`newOwner`). Can only be called by the current owner."
      }
    },
    "version": 1
  },
  "userdoc": {
    "kind": "user",
    "methods": {},
    "version": 1
  },
  "storageLayout": {
    "storage": [
      {
        "astId": 277,
        "contract": "contracts/RandomIpfsNft.sol:RandomIpfsNft",
        "label": "_name",
        "offset": 0,
        "slot": "0",
        "type": "t_string_storage"
      },
      {
        "astId": 279,
        "contract": "contracts/RandomIpfsNft.sol:RandomIpfsNft",
        "label": "_symbol",
        "offset": 0,
        "slot": "1",
        "type": "t_string_storage"
      },
      {
        "astId": 283,
        "contract": "contracts/RandomIpfsNft.sol:RandomIpfsNft",
        "label": "_owners",
        "offset": 0,
        "slot": "2",
        "type": "t_mapping(t_uint256,t_address)"
      },
      {
        "astId": 287,
        "contract": "contracts/RandomIpfsNft.sol:RandomIpfsNft",
        "label": "_balances",
        "offset": 0,
        "slot": "3",
        "type": "t_mapping(t_address,t_uint256)"
      },
      {
        "astId": 291,
        "contract": "contracts/RandomIpfsNft.sol:RandomIpfsNft",
        "label": "_tokenApprovals",
        "offset": 0,
        "slot": "4",
        "type": "t_mapping(t_uint256,t_address)"
      },
      {
        "astId": 297,
        "contract": "contracts/RandomIpfsNft.sol:RandomIpfsNft",
        "label": "_operatorApprovals",
        "offset": 0,
        "slot": "5",
        "type": "t_mapping(t_address,t_mapping(t_address,t_bool))"
      },
      {
        "astId": 1264,
        "contract": "contracts/RandomIpfsNft.sol:RandomIpfsNft",
        "label": "_tokenURIs",
        "offset": 0,
        "slot": "6",
        "type": "t_mapping(t_uint256,t_string_storage)"
      },
      {
        "astId": 154,
        "contract": "contracts/RandomIpfsNft.sol:RandomIpfsNft",
        "label": "_owner",
        "offset": 0,
        "slot": "7",
        "type": "t_address"
      },
      {
        "astId": 2003,
        "contract": "contracts/RandomIpfsNft.sol:RandomIpfsNft",
        "label": "s_requestIdToSender",
        "offset": 0,
        "slot": "8",
        "type": "t_mapping(t_uint256,t_address)"
      },
      {
        "astId": 2005,
        "contract": "contracts/RandomIpfsNft.sol:RandomIpfsNft",
        "label": "s_tokenCounter",
        "offset": 0,
        "slot": "9",
        "type": "t_uint256"
      },
      {
        "astId": 2011,
        "contract": "contracts/RandomIpfsNft.sol:RandomIpfsNft",
        "label": "s_dogTokenUris",
        "offset": 0,
        "slot": "10",
        "type": "t_array(t_string_storage)dyn_storage"
      },
      {
        "astId": 2013,
        "contract": "contracts/RandomIpfsNft.sol:RandomIpfsNft",
        "label": "i_mintFee",
        "offset": 0,
        "slot": "11",
        "type": "t_uint256"
      }
    ],
    "types": {
      "t_address": {
        "encoding": "inplace",
        "label": "address",
        "numberOfBytes": "20"
      },
      "t_array(t_string_storage)dyn_storage": {
        "base": "t_string_storage",
        "encoding": "dynamic_array",
        "label": "string[]",
        "numberOfBytes": "32"
      },
      "t_bool": {
        "encoding": "inplace",
        "label": "bool",
        "numberOfBytes": "1"
      },
      "t_mapping(t_address,t_bool)": {
        "encoding": "mapping",
        "key": "t_address",
        "label": "mapping(address => bool)",
        "numberOfBytes": "32",
        "value": "t_bool"
      },
      "t_mapping(t_address,t_mapping(t_address,t_bool))": {
        "encoding": "mapping",
        "key": "t_address",
        "label": "mapping(address => mapping(address => bool))",
        "numberOfBytes": "32",
        "value": "t_mapping(t_address,t_bool)"
      },
      "t_mapping(t_address,t_uint256)": {
        "encoding": "mapping",
        "key": "t_address",
        "label": "mapping(address => uint256)",
        "numberOfBytes": "32",
        "value": "t_uint256"
      },
      "t_mapping(t_uint256,t_address)": {
        "encoding": "mapping",
        "key": "t_uint256",
        "label": "mapping(uint256 => address)",
        "numberOfBytes": "32",
        "value": "t_address"
      },
      "t_mapping(t_uint256,t_string_storage)": {
        "encoding": "mapping",
        "key": "t_uint256",
        "label": "mapping(uint256 => string)",
        "numberOfBytes": "32",
        "value": "t_string_storage"
      },
      "t_string_storage": {
        "encoding": "bytes",
        "label": "string",
        "numberOfBytes": "32"
      },
      "t_uint256": {
        "encoding": "inplace",
        "label": "uint256",
        "numberOfBytes": "32"
      }
    }
  }
}